:03000000020BA34D
:0C0BA300787FE4F6D8FD75814B020BEA68
:100E6E006669727374206C696E65007365636F6E6C
:100E7E0064206C696E65007468726964206C696EBA
:0E0E8E006500666F75727468206C696E650091
:100C2F001210E9E4FDFF120003E4F54BE54B900EC3
:100C3F006E93FF600712118B054B80F0E4FD7F016F
:100C4F00120003E4F54BE54B900E7993FF6007120A
:100C5F00118B054B80F0E4FD7F02120003E4F54B8E
:100C6F00E54B900E8593FF600712118B054B80F0BB
:100C7F00E4FD7F03120003E4F54BE54B900E9093D8
:0C0C8F00FF600712118B054B80F080FE07
:1010E900D2907F3012117812102C7F0C12117812C5
:0A10F900102C7F0112117802102C58
:10117800C293C294C2958F8012102CD29512102C53
:03118800C29522EB
:10118B00D293C294C2958F8012102CD29512102C30
:03119B00C29522D8
:10000300EF70047F808013BF01047F90800CBF02D8
:10001300047F888005BF03027F98EF2DFF021178CC
:10120600D2B7C2B6758910D2AFD2ABC28EC28F2208
:0B127600D2B6120FC0120FC0C2B62289
:100C9B00E4F58DF58BC28F12127630B7FDD28E2014
:100CAB00B7FDC28E308F08751E27751F0F8030AFB2
:100CBB008DEFFEAD8B7C00E42DFFEC3EFEAD07FC13
:100CCB00E41202B67BC57A207930783E12013EE4FD
:100CDB00FBFAF9783F12004D1202EF8E1E8F1FAEFA
:030CEB001EAF1F1A
:010CEE0022E3
:10111D00E4F5D875D902F5E9F5F9F5F2EFF404F532
:09112D00EAF5FA75DA42D2DE227D
:10113600E4F5D875D902F5E9F5F9F5F3EFF404F518
:09114600EBF5FB75DB42D2DE2261
:0B1281008F9DE4F5BD75BC80020FC01E
:100DE100E4FEFDFBFAEF4488F5BC00000000E5BC21
:100DF10030E4FB53BCEFAEBDE5BE5403FDAF06EFDF
:0E0E010075F004A47C002DFBEC35F0FEAF0371
:010E0F0022C0
:10116400EF4488F5BC00000000E5BC30E4FB53BC50
:04117400EFAFBD22FA
:100FC0005389F0438901438E80C2A9758CFF758ACD
:0B0FD000BEC28DD28C308DFDC28C2281
:100FDB005389F0438901438E80C2A9758CFE758AB3
:0B0FEB0057C28DD28C308DFDC28C22CD
:100FF6005389F0438901438E80C2A9758CEA758AAC
:0B10060067C28DD28C308DFDC28C22A1
:101011005389F0438901438E80C2A9758CD4758AA6
:0B102100CDC28DD28C308DFDC28C2220
:10102C005389F0438901438E80C2A9758C28E4F55D
:0B103C008AC28DD28C308DFDC28C2248
:101047005389F0438901438E80C2A9758C50E4F51A
:0B1057008AC28DD28C308DFDC28C222D
:101062005389F0438901438E80C2A9758C7B758AAE
:0B1072003AC28DD28C308DFDC28C2262
:10107D005389F0438901438E80C2A9758CA0E4F594
:0B108D008AC28DD28C308DFDC28C22F7
:101098005389F0438901438E80C2A9758C90E4F589
:0B10A8008AC28DD28C308DFDC28C22DC
:10119E00E4FFFE1210110FBF00010EBE01F5BFF4E9
:0111AE00F24E
:0111AF00221D
:1011B000E4FFFE1210110FBF00010EBE03F5BFE8E1
:0111C000F23C
:0111C100220B
:0612A0001212A61212A6B4
:0212A600002224
:0C1252000000000000000000000000226E
:091297001212A61212A60212A600
:0612BF001212A00212A6AB
:0E1244001212A01212A60000000000000022EC
:101216003F065B4F666D7D077F6F777C395E797120
:1011C200D2A1D2A0121244C2A0121244C2A102128F
:0111D20044D8
:1011D300C2A1C2A0121244D2A1121244D2A002127E
:0111E30044C7
:0C125E00C2A0D2A1121244C2A1D2A02250
:020E10008F3E13
:100E1200E4F53FE53E20E704C2A08002D2A0E53E11
:100E220025E0F53EC2A1121244D2A1121244C2A17F
:0C0E3200121244053FE53FC3940840D76E
:010E3E002291
:0712B8007D017F48021103D4
:101103008F408D411211C2AF40120E1012125EAF0A
:0A11130041120E1012125E0211D3F9
:0A128C00C109C10A0142000143003C
:100F3E007B017A0079007D407C00120F1875985065
:100F4E00438E04438E0175D7E075D6FE438E10D2C4
:040F5E00ACD2AF2240
:100F62007B017A0079407D407C00120F18759A50FF
:100F7200438E0475D7E075D6FE438E1043AF01D27F
:020F8200AF229C
:1010B300E4FFEFC39542500F74002FF582E4340030
:0A10C300F583E4F00F80EBE4F54242
:0110CD002200
:1010CE00E4FFEFC39543500F74402FF582E43400D4
:0A10DE00F583E4F00F80EBE4F54326
:0110E80022E5
:0812A8002009FDD2098F9922F3
:0812B000200AFDD20A8F9B22E7
:100026001205B27002FF221205B2FF600C1212A86E
:0C003600740129F9E43AFA80EE7F0122FF
:100FA4001205B27002FF221205B2FF600C1212B0D9
:0C0FB400740129F9E43AFA80EE7F012272
:03002300020DB01B
:100DB000C0E0C083C082C0D075D008309813C298FC
:100DC000AF42054274002FF582E43400F583E599C3
:100DD000F0309904C299C209D0D0D082D083D0E03B
:010DE00032E0
:03004300020ADFCF
:100ADF00C0E0C0F0C083C082C0D075D008E59A20B6
:100AEF00E003020B8E539AFEAF43054374402FF57C
:100AFF0082E43400F583E59BF0900040E0B4613B65
:100B0F00AB00AA00A900A800E4FFFEFD7C40120084
:100B1F00497B177AB779D17838120244505EAF000B
:100B2F00AE00AD00AC007BCD7ACC794C783D120095
:100B3F004D8F008E008D008C008041900040E0B4FE
:100B4F00643DE4FFFE7D807CBFAB00AA00A900A836
:100B5F000012004D7B177AB779D1783812024450C2
:100B6F001BAF00AE00AD00AC007BCD7ACC794C78DA
:100B7F003D1200498F008E008D008C001210CEE5C3
:100B8F009A30E105539AFDC20AD0D0D082D083D0DB
:040B9F00F0D0E03280
:060F18008B158A168917F3
:100F1E00E4FFFEC3EF9DEE9C5015AB15AA16A91764
:0F0F2E008F828E83E412060A0FBF00010E80E44B
:010F3D002291
:100D3C0074302E7478743D74302E7478742B222594
:100D4C0073220074302E7478743D22252E3366562F
:100D5C00220074312E7478743D22252E336656226F
:100D6C000074322E7478743D22252E326641220096
:10114F008B188A19891A121226AB18AA19A91A1202
:05115F000FA40212269E
:060ECA008B1B8A1C891D30
:100ED0007525FF75260D75273C8B288A29892A7B65
:100EE000017A0079801206CC7B017A0079800211A8
:010EF0004FB2
:020CEF008F1064
:100CF100E510700B7525FF75260D75274F801EE5D4
:100D010010B4010B7525FF75260D75275E800EE564
:100D110010B4021E7525FF75260D75276D85142BE0
:100D210085132A8512298511287B017A0079C01241
:0B0D310006CC7B017A0079C002114F54
:0F1226007FFF1212B07FFF1212B07FFF0212B0D3
:1011E400D2A5D2A4121244C2A4121244C2A502125D
:0111F40044B6
:1011F500C2A5C2A4121244D2A5121244D2A402124C
:0112050044A4
:0C126A00C2A4D2A5121244C2A5D2A42234
:0F123500D2A4121244D2A5121244C2A50212442E
:020E3F008F44DE
:100E4100E4F545E54420E704C2A48002D2A4E544C8
:100E510025E0F544C2A5121244D2A5121244C2A53E
:0C0E61001212440545E545C3940840D733
:010E6D002262
:100E9C00E4F546F546D2A512124430A403434701AB
:100EAC00E546C394075006E54725E0F547C2A51271
:0D0EBC0012440546E546C3940840DAAF47EE
:010EC9002206
:020D7C008F489E
:100D7E001211E47F90120E3F12126AE5484440FFB2
:100D8E00120E3F12126A1211F51211E47F91120E19
:100D9E003F12126A120E9C8F491212351211F5AFC4
:010DAE0049FB
:010DAF002221
:100F84008F4A1211E47F90120E3F12126A7F4012B0
:100F94000E3F12126AAF4A120E3F12126A0211F584
:1000460002035BE86480F8E933E83360110460F08A
:10005600ED33EC337009E8FCE9FDEAFEEBFF220420
:1000660060DED3EB9FEA9EE99DE8C2E78CF0C2F71B
:1000760095F0400CE8CCF8E9CDF9EACEFAEBCFFBE7
:1000860012032685D0F05804700320D5B3E8047017
:10009600075002B2D502036592D5EC0460F7E4CCB2
:1000A600C0E0C398F8603B94186008400DD0E0FBB0
:1000B60002033DE4FBFAC9FC8028E830E406E4C903
:1000C600FBE4CAFCE830E305E4C9CACBFCE8540704
:1000D6006010F8C3E913F9EA13FAEB13FBEC13FC0F
:1000E600D8F130F52FC3E49CFCEF9BFFEE9AFEEDB2
:1000F60099FDD0E0FBEF4E4D4C701222DB0302035C
:1001060062EC2CFCEF33FFEE33FEED33FDED30E712
:10011600EB02033DEF2BFFEE3AFEED39FDD0E0FB9F
:1001260050130BBB0003020365ED13FDEE13FEEF48
:0801360013FFEC13FC02033D72
:10013E00EC4D6011E8497017ED33EC3304600DE4BB
:10014E00FCFFFEFD22E933E8330470F802035B1274
:10015E00032658046009E4CC248150062850090275
:10016E000365284003020362C0E0EB4A7044B98085
:10017E0006D0E0FB020351EF4E701CBD8008EBFF72
:10018E00EAFEE9FD80EBE98DF0A4FEE5F002022720
:10019E00E9CDF9EAFEEBFFEF89F0A4FCE5F0CE899C
:1001AE00F0A42EFFE435F0CD89F0A42DFEE435F059
:1001BE008067EF4E7005BD80D780C3EF8BF0A4AC87
:1001CE00F0EE8BF0A42CFCE435F0F8EF8AF0A42CC2
:1001DE00E5F038FCE433CB8DF0A42CFCE5F03BF8D5
:1001EE00EE8AF0A42CFCE5F038F8E433CF89F0A4C5
:1001FE002CFCE5F038CF3400CE89F0A42FFFE5F0CB
:10020E003EFEE433C98DF0A42EFEE5F039CD8AF022
:10021E00A42FFFE5F03EFEE43DFD33D0E0FB50079A
:10022E000BBB000F020365EC2CFCEF33FFEE33FE2D
:06023E00ED33FD02033D5B
:1002440074F8CC6480CCC86480C8F582046043C36D
:10025400EB9FF5F0EA9E42F0E99D42F0E89C45F000
:1002640060305018E5825FFFE582F42B5582FB5025
:10027400210ABA001D09B90019088016E5825BFB42
:10028400E582F42F5582FF50090EBE00050DBD0016
:10029400010CC3EB9FF5F0EA9E42F0E99D42F0E8C1
:0D02A4009C45F06007CC4820E701B3EC2238
:1002B10075F020800E75F010800575F0087D007EC8
:1002C100007F003392D530D50312062CEC33401059
:1002D100EF33FFEE33FEED33FDEC33FCD5F0ED22D1
:0E02E100E5F0247EA2D513CC92E7CDCEFF220D
:1002EF00EDD2E7CD33EC3392D524814006E4FFFE07
:1002FF00FDFC22FCE4CFCECDCC24E0501174FF8066
:10030F00EDC3CC13CCCD13CDCE13CECF13CF047002
:07031F00F030D5DE02062CD0
:10067000E5392425F8E60539227822300702782565
:10068000E475F00112063A0205B22000EB7F2ED28B
:10069000008018EF540F2490D43440D4FF30040B62
:1006A000EF24BFB41A0050032461FFE53A6002153D
:1006B0003A053DE53D7002053C30070D7822E475B2
:1006C000F00112063AEF0205F8020EF17403D207A8
:1006D0008003E4C207F5398B228A238924E4F53AA2
:1006E000F53CF53DE53A60077F201206AB80F575D5
:1006F0003BFFC201C200C202C203C205C206C20859
:10070000120679FF700D3007057F001206BCAF3D61
:10071000AE3C22B4255FC2D5C204120679FF24D0B4
:10072000B40A00501A75F00A783A30D50508B6FFB9
:100730000106C6A426F620D5047002D20380D9246F
:10074000CFB41A00EF5004C2E5D2040209A9D201C5
:1007500080C6D20080C0D20280BCD2D580BAD20579
:1007600080B47F201206AB2002077401B53A004026
:10077000F1120670FF1206AB0206E4D208D2068020
:1007800095120670FB120670FA120670F94A4B7049
:100790000679A07A0A7BFF20022EE53A602A7E00C5
:1007A0008E827583001205CB60060EEE653B70F0FD
:1007B000C2D5EBC0E0EAC0E0E9C0E0EE120A09D021
:1007C000E0F9D0E0FAD0E0FB1205B2FF60AAEBC07E
:1007D000E0EAC0E0E9C0E01206ABD0E02401F9D0C5
:1007E000E03400FAD0E0FBE53B0460DCD53BD98087
:1007F00087D20280A21209EC60F7E53B7001041277
:100800000370A93B600DE53B600914F53B120A93A8
:10081000EF60F3EA30E702F404C3995077EAF42575
:100820003B0430E701E404F53B800D1209EC60C1A4
:10083000EA053B253B120370EA7838F630E701E41D
:10084000253B04D53B0420050114120A09E4C0E04D
:10085000120A937838E6601320E70714F61206931D
:10086000802204F6D0E014C0E07F00120693E53B3E
:10087000600712068A153B800B30050312068AD0EA
:10088000E00206E4D0E00480C51209EC60A0E53B7C
:10089000041203707838EAF6E53B20050260010493
:0508A0002404120A0906
:1008A50074FF04C0E0120A93120693E53B2005028B
:1008B500600312068AD0E0B53BE87F4512069D78B5
:1008C50038E67F2B30E7047F2DF404C0E01206AB39
:1008D500D0E075F00A84C0F0120694D0E0120694B8
:1008E5000206E4791080027908C206C2088008D29F
:1008F500D5790A8004790AC2D5E53B047002F53B37
:10090500E4FAFDFEFF120670FC7B082001131206B7
:1009150070FD7B1030000A120670FE120670FF7B18
:1009250020EC3382D592D55013C3E43000069FFFE7
:10093500E49EFEE42001039DFDE49CFCE4CBF8C2AB
:1009450001EC700CCFCECDCCE824F8F870F380170D
:10095500C3EF33FFEE33FEED33FDEC33FCEB33FB3E
:10096500994002FB0FD8E9EB300105F8D0E0C44807
:10097500B201C0E00AEC4D4E4F78207B0070C2EA10
:10098500B53B0040BCC0E0120A0BD0F0D0E020011E
:1009950004C4C0E0C4B201C0F0120694D0F0D5F092
:1009A500EB0206E412064A07815308E85807524C41
:1009B500074E4208EC4F08F44408F449076743081A
:1009C500FA55082B4608894507F5470AC0500756CA
:1009D5002D075A2E077D2B075E23077B200AA92AA0
:1009E50007164800000775E53BB4FF03753B061283
:1009F5000670FC120670FD120670FE120670FF7876
:100A05003102039F790AA2D5200314300509B910D4
:100A1500020404B9080104A2D520060250010420ED
:100A250002689202B53A005034C0E07F20300319C5
:100A35007F30A20272067205500F120A62C202C20C
:100A450006C205C2087F30800F300503E9C0E012F9
:100A550006AB300503D0E0F9D0E0B53ACC30051748
:100A65007F30B9100C1206AB7F583004077F7880B1
:100A750003B908031206AB3002057F2D0206AB7FD2
:100A8500202008F87F2B2006F322920280CF7F00DA
:100A9500B4070050052431F8E6FF22286E756C6C0A
:100AA5002900D2011206703001F8C201783A30D51A
:100AB5000108F60207162D50434958120670240303
:100AC500B405004001E4900ABB9312069C743A12E7
:0A0AD500069CD203753A040208E8FB
:10032600E9D2E7C933E833F892D5EDD2E7CD33EC1D
:0703360033FC5002B2D52296
:10033D00EC30E7100FBF000C0EBE00080DBD000421
:10034D000BEB6014A2D5EB13FCED92E7FD2274FFCD
:10035D00FCFDFEFF22E480F8A2D574FF13FC7D8026
:03036D00E480EF3A
:10037000F920E72824F950037907E4F42402FB1854
:10038000DBFDE624FB5014E9600DE4F618E604F604
:0F039000B40A08E4F6D9F57401F60A22C2D522A0
:10039F00ED33EC3392D5FA602AB4FF33EDC2E77B2D
:1003AF00FF60067A0379C4E4227A0379CD20D5045D
:1003BF007A0379C8224E614E002B494E46002D49D3
:1003CF004E4600E47A08F608DAFC7B00740722E850
:1003DF00C0E0ECC0E0EDC0E0EEC0E0EFC0E0EA75D9
:1003EF00F010A4CAABF075F04DA42BFBE435F0FC74
:1003FF00EA2410FAEB34C5FBEC34D9FCEDC2E7FF6D
:10040F0075F056A4F42411C5F0F434C58FF0A42A66
:10041F00E5F03BE43CF620E714120572D0E0FFD084
:10042F00E0FED0E0FDD0E0FC1204A58014F404122D
:10043F000572D0E0FFD0E0FED0E0FDD0E0FC12016D
:10044F003ED0E0F8E6FAEDD2E7CD33EC332482FB71
:10045F00E4C3CF33CFCE33CECD33CD33DBF37B07F6
:10046F0075F00A846004F6081B0AE5F0F6088FF0B1
:10047F00740AA4FFACF08EF0740AA42CFEACF050FA
:10048F00010C8DF0740AA42CFDE435F0F608DBDEC8
:03049F00740722BD
:1004A200020365EC5D046005E85904700302035B16
:1004B200120326580460F6EC4860F2EC7004FDFE6C
:1004C200FF22C860DB2481C85009C398600250062D
:1004D2000203629850CAF582E9294B4A7005AB8241
:1004E20002035175F0007C1A7880C3EF9BEE9AEDFF
:1004F20099400DC3EF9BFFEE9AFEED99FDE842F0A5
:10050200DC23ACF0D0E0FFD0E0FED0E0FDAB8220F7
:10051200E7101BEB60BAEC2CFCEF33FFEE33FEED81
:1005220033FD02033DE803F830E705C0F075F00043
:10053200EF2FFFEE33FEED33FD40B830E7C280AA65
:100542003F8000004120000042C80000447A0000C1
:10055200461C400047C35000497424004B18968043
:100562004CBEBC205A0E1BCA6753C21C749DC5AE3A
:10057200FB60065407601C23231205A0EB5438606D
:100582000912058C12059B12013EECF8EDF9EEFA08
:10059200EFCB22EB12059B80F1543803241C90050B
:1005A20042FE93FC0EEE93FD0EEE930ECE93FF22CF
:100BAF00020C2FE493A3F8E493A34003F68001F221
:100BBF0008DFF48029E493A3F85407240CC8C33347
:100BCF00C4540F4420C8834004F456800146F6DF16
:100BDF00E4800B010204081020408090128CE47E08
:100BEF00019360BCA3FF543F30E509541FFEE4930B
:100BFF00A360010ECF54C025E060A840B8E493A3D2
:100C0F00FAE493A3F8E493A3C8C582C8CAC583CAFC
:100C1F00F0A3C8C582C8CAC583CADFE9DEE780BEB4
:011296000057
:1005B200BB010689828A83E0225002E722BBFE0247
:0905C200E32289828A83E493227A
:1005CB00BB010CE58229F582E5833AF583E02250E5
:1005DB0006E92582F8E622BBFE06E92582F8E2222F
:0D05EB00E58229F582E5833AF583E4932249
:1005F800BB010689828A83F0225002F722BBFE01E2
:02060800F322DB
:10060A00F8BB010DE58229F582E5833AF583E8F026
:10061A00225006E92582C8F622BBFE05E92582C8D2
:02062A00F222BA
:0E062C00C3E49FFFE49EFEE49DFDE49CFC22DF
:10063A00FAE6FB0808E6F925F0F618E6CA3AF622C1
:10064A00D083D082F8E4937012740193700DA3A33F
:10065A0093F8740193F5828883E473740293686053
:06066A00EFA3A3A380DF53
:100EF100EFB40A07740D120EFC740A309811A89908
:100F0100B8130CC2983098FDA899C298B811F63060
:070F110099FDC299F5992238
:00000001FF
